:020000040800F2
:1000000000000320D91E0008751E0008771E000896
:10001000791E00087B1E00087D1E000800000000FD
:100020000000000000000000000000007F1E00082B
:10003000811E000800000000831E0008851E0008C5
:10004000291F0008291F0008291F0008291F000870
:10005000291F0008291F0008291F0008291F000860
:10006000291F0008291F0008291F0008291F000850
:10007000291F0008291F0008291F0008291F000840
:10008000291F0008291F0008291F0008291F000830
:10009000291F0008291F0008291F0008291F000820
:1000A000291F0008291F0008291F0008291F000810
:1000B000291F0008291F0008291F0008291F000800
:1000C000291F0008291F0008291F0008291F0008F0
:1000D000291F0008291F0008291F0008291F0008E0
:1000E000291F0008291F0008291F0008291F0008D0
:1000F000291F0008291F0008291F0008291F0008C0
:10010000291F0008291F0008291F0008291F0008AF
:10011000291F0008291F0008291F0008291F00089F
:10012000291F0008291F0008291F0008291F00088F
:10013000291F0008291F0008291F0008291F00087F
:10014000291F0008291F0008291F0008291F00086F
:10015000291F0008291F0008291F0008291F00085F
:10016000291F0008291F0008291F0008291F00084F
:10017000291F0008291F0008291F0008000000008F
:10018000291F0008291F0008291F0008291F00082F
:10019000291F0008291F0008291F0008291F00081F
:0C01A000291F0008291F0008291F000863
:1001AC0010B5054C237833B9044B13B10448AFF3A5
:1001BC0000800123237010BD0C0000200000000003
:1001CC00841F000808B5034B1BB103490348AFF368
:1001DC00008008BD0000000010000020841F0008F3
:1001EC0053B94AB9002908BF00281CBF4FF0FF3192
:1001FC004FF0FF3000F072B9ADF1080C6DE904CE90
:10020C0000F006F8DDF804E0DDE9022304B07047E5
:10021C002DE9F047089E04468846002B4BD18A42B4
:10022C00154667D9B2FA82F24AB1C2F1200701FA37
:10023C0002F320FA07F7954047EA030894404FEA87
:10024C00154E230CB8FBFEF71FFA85FC0EFB178826
:10025C0043EA084307FB0CF1994209D9EB1807F163
:10026C00FF3080F01B81994240F21881023F2B44F1
:10027C005B1AA4B2B3FBFEF00EFB103344EA03444A
:10028C0000FB0CFCA44509D92C1900F1FF3380F0BC
:10029C000781A44540F2048102382C4440EA07400F
:1002AC00A4EB0C0400271EB1D4400023C6E9004384
:1002BC003946BDE8F0878B4209D9002E00F0EB805F
:1002CC000027C6E9000138463946BDE8F087B3FA85
:1002DC0083F7002F47D18B4202D3824200F2FA807F
:1002EC00841A61EB030301209846002EE0D0C6E986
:1002FC000048DDE702B9FFDEB2FA82F2002A40F0D4
:10030C008F80491B4FEA154E1FFA85F80127B1FB68
:10031C00FEFC230C0EFB1C1143EA014308FB0CF101
:10032C00994207D9EB180CF1FF3002D2994200F236
:10033C00CD808446591AA3B2B1FBFEF00EFB10140B
:10034C0043EA044408FB00F8A04507D92C1900F136
:10035C00FF3302D2A04500F2B6801846A4EB080485
:10036C0040EA0C409FE7C7F1200CBB4022FA0CFE80
:10037C004EEA030E01FA07F420FA0CF521FA0CF3FD
:10038C004FEA1E482543B3FBF8F92C0C08FB193334
:10039C001FFA8EFA44EA034309FB0AF49C4202FA60
:1003AC0007F200FA07F10BD91EEB030309F1FF303A
:1003BC0080F087809C4240F28480A9F1020973444A
:1003CC001B1BADB2B3FBF8F008FB103345EA03443A
:1003DC0000FB0AFAA24508D91EEB040400F1FF3316
:1003EC006BD2A24569D90238744440EA0940A0FB9B
:1003FC000289A4EB0A044C45C2464B4654D351D057
:10040C00002E69D0B1EB0A0564EB030404FA0CFC72
:10041C00FD40FC404CEA0505C6E90054002747E7BF
:10042C00C2F1200320FA03F7954001FA02F021FAF9
:10043C0003F34FEA154E3843010CB3FBFEF71FFADA
:10044C0085F80EFB173341EA034107FB08F38B4297
:10045C0004FA02F407D9691807F1FF3C2FD28B423A
:10046C002DD9023F2944CB1A81B2B3FBFEF00EFB0F
:10047C00103341EA034100FB08F38B4207D969189A
:10048C0000F1FF3C17D28B4215D902382944C91A06
:10049C0040EA07473BE73746304609E70746E7E6B9
:1004AC001846FBE64145ABD2B8EB020A69EB0E02EB
:1004BC0001381346A4E76046E9E7184695E7674616
:1004CC00D1E781467CE702382C4447E7ACF1020CBB
:1004DC002B442FE7384608E73746E9E6704700BF5C
:1004EC0010B504460E4B18784FF47A73B3FBF0F347
:1004FC000C4A1068B0FBF3F000F09CF868B90F2CB4
:10050C0001D901200AE0002221464FF0FF3000F013
:10051C005DF8034B5C60002000E0012010BD00BFC3
:10052C00000000200800002008B50B4B1A6842F4AC
:10053C0000721A601A6842F480621A601A6842F4F7
:10054C0080721A60032000F02FF80020FFF7C8FF1C
:10055C0001F030FC002008BD003C0240034A116849
:10056C00034B1B780B441360704700BF280000201E
:10057C0000000020014B1868704700BF28000020C5
:10058C0038B50446FFF7F6FF0546B4F1FF3F02D03D
:10059C00044B1B781C44FFF7EDFF401BA042FAD321
:1005AC0038BD00BF00000020074AD36823F4E06385
:1005BC001B041B0C000200F4E060184340F0BF6009
:1005CC0040F40030D060704700ED00E030B4174BC1
:1005DC00DB68C3F30223C3F10704042C28BF0424F3
:1005EC001D1D062D18D9033B4FF0FF3505FA04F4F9
:1005FC0021EA0401994005FA03F322EA03031943A3
:10060C0000280BDB0901C9B200F1604000F5614024
:10061C0080F8001330BC70470023E5E700F00F00B2
:10062C000901C9B2024B1954F4E700BF00ED00E018
:10063C0014ED00E00138B0F1807F0AD2064B58600F
:10064C00064AF02182F823100020986007221A60D5
:10065C0070470120704700BF10E000E000ED00E0A3
:10066C0000230F2B00F2E380F0B482B039E00922B2
:10067C0000E00022B2403A4302346D4E46F824208A
:10068C006C4A1468EA4302EA04064F6817F4803F88
:10069C0001D045EA0406674C2660646802EA040649
:1006AC004F6817F4003F01D045EA0406614C6660C0
:1006BC00A46802EA04064F6817F4801F01D045EACB
:1006CC0004065C4CA660E46822404E6816F4001FD9
:1006DC0001D045EA0402574CE26001330F2B00F2C3
:1006EC00A38001229A400C6804EA0205AA42F4D1C4
:1006FC004C68022C01D0122C10D1DE08083650F8B0
:10070C0026C003F00704A7000F24BC402CEA040CFD
:10071C000C69BC4044EA0C0440F8264004685F00B5
:10072C000326BE40F64306EA040C4C6804F00304AE
:10073C00BC4044EA0C0404604C6804F1FF3CBCF17E
:10074C00010F03D9112C01D0122C10D1846806EAA8
:10075C00040CCC68BC4044EA0C048460446824EA71
:10076C0002024C68C4F300149C4014434460C268F9
:10077C0016408A68BA403243C2604A6812F0805F01
:10078C00ABD0002201922C4A546C44F48044546443
:10079C00526C02F480420192019A9C08A61C244AD5
:1007AC0052F8267003F0030296000F22B24027EA9B
:1007BC000207224A90423FF45CAF02F580629042FD
:1007CC0022D002F58062904220D002F580629042E5
:1007DC001ED002F5806290421CD002F580629042DD
:1007EC001AD002F58062904218D002F580629042D5
:1007FC0016D002F58062904214D002F580629042CD
:10080C003FF435AF0A2235E7012233E7022231E704
:10081C0003222FE704222DE705222BE7062229E7E6
:10082C00072227E7082225E702B0F0BC7047704783
:10083C0000380140003C01400038024000000240FA
:10084C0003685A6912F4806F11D06FF480625A6198
:10085C0000230363202280F83D2080F83E30026C98
:10086C0042F00402026480F83C3001207047002002
:10087C007047F8B506460C4617461D4622E0FFF7B2
:10088C0079FE069BC01AA84200D8DDB90023336359
:10089C00202286F83D2086F83E30326C42F0200251
:1008AC00326486F83C3001201AE033685B6924EA34
:1008BC0003039BB2B3FA83F35B099F420FD1B5F1EB
:1008CC00FF3FDCD1C4F30743012BEED033689B69A7
:1008DC0024EA03039BB2B3FA83F35B09EDE7002030
:1008EC00F8BDF8B504460D4616461F463CE01A689E
:1008FC0042F400721A6023686FF480625A6100231C
:10090C002363202284F83D2084F83E30226C42F090
:10091C000402226484F83C30012033E0FFF72AFE05
:10092C00C01BB04200D8FEB900232363202284F8F8
:10093C003D2084F83E30226C42F02002226484F880
:10094C003C3001201EE023685B6925EA03039BB25F
:10095C00003318BF0123A3B123685A6912F4806FC6
:10096C00C5D1B6F1FF3FD9D1C5F30743012BEAD06E
:10097C0023689B6925EA03039BB2003318BF01234C
:10098C00E9E70020F8BD0000F0B583B004460F463F
:10099C0015461E46C36A082B0DD0012B0BD013F540
:1009AC00803F08D0036B122B0AD10268136843F402
:1009BC008073136004E02268136843F4807313603F
:1009CC0000962B4600224FF001112046FFF751FFF5
:1009DC0018BB2369B3F5804F0DD1236807F0FE07D0
:1009EC001F6133462A4610492046FFF77AFF03461B
:1009FC00A0B1012312E0FB11226803F0060343F0BF
:100A0C00F003136133462A4608492046FFF769FF75
:100A1C0038B92368FFB21F61E3E70123184603B01E
:100A2C00F0BD0123FAE700BF02000100080001003D
:100A3C0070B504460D46164623685B6913F0800FAB
:100A4C001CD12046FFF7FCFED0B9B5F1FF3FF3D027
:100A5C00FFF790FD801BA84201D8002DECD100239C
:100A6C002363202284F83D2084F83E30226C42F02F
:100A7C002002226484F83C30012000E0002070BD8C
:100A8C000120FCE72DE9F04184B004460E461746E0
:100A9C0098460B9D0268136843F4806313600268E8
:100AAC00136843F48073136000950A9B00224FF087
:100ABC000111FFF7DEFE20B10123184604B0BDE89A
:100ACC00F081F6B2236806F0FE021A612B460A9AF0
:100ADC0038492046FFF705FF08B10123EDE7002355
:100AEC00039323685A6903929B690393039B2A46D9
:100AFC000A992046FFF79CFF58B1236C042B01D0B8
:100B0C000123DAE72268136843F4007313600123AE
:100B1C00D3E7B8F1010F0DD12368FFB21F612A464C
:100B2C000A992046FFF784FF20B3236C042B1AD0BC
:100B3C000123C2E723683A0A1A612A460A99204619
:100B4C00FFF776FF58B1236C042B01D00123B4E7D7
:100B5C002268136843F4007313600123ADE7236824
:100B6C00FFB21F61DBE72268136843F40073136064
:100B7C000123A2E72268136843F480731360009585
:100B8C000A9B00224FF001112046FFF772FE08B1BC
:100B9C00012392E7236846F001061E612B460A9A50
:100BAC0004492046FFF79DFE0346002885D001230B
:100BBC0083E700BF0200010070B504460D461646DF
:100BCC0023685B6913F0040F1CD12046FFF738FE35
:100BDC00D0B9B5F1FF3FF3D0FFF7CCFC801BA84296
:100BEC0001D8002DECD100232363202284F83D2072
:100BFC0084F83E30226C42F02002226484F83C30AF
:100C0C00012000E0002070BD0120FCE770B5054616
:100C1C000C4616462B685A6912F0400F29D15A69B6
:100C2C0012F0100F15D1FFF7A5FC801BA04201D8C4
:100C3C00002CEFD100232B63202285F83D2085F872
:100C4C003E302A6C42F020022A6485F83C300120A8
:100C5C0070BD6FF010025A6100232B63202285F8BF
:100C6C003D2085F83E302A6C2A6485F83C30012002
:100C7C00EEE70020ECE70000002800F0BE80F8B59D
:100C8C00044690F83D30002B6BD0242384F83D3083
:100C9C002268136823F00103136000F04DFE6268B4
:100CAC00584B9A4262D8584B98428CBF0023012370
:100CBC00002B40F0A480554BA3FB00239B0C216818
:100CCC004A6822F03F021A434A6025682A6A22F0D9
:100CDC003F0266684B498E424ED8013313432B6258
:100CEC002568E96921F44F4121F0FF016368454A09
:100CFC0093424BD801385B00B0FBF3F30133C3F3E1
:100D0C000B03042B38BF04230B43EB6121680B68E6
:100D1C0023F0C003E269206A024313430B6021688D
:100D2C008B6823F4034323F0FF032269E06802433A
:100D3C0013438B602168CB6823F0FF036269A069C1
:100D4C0002431343CB602268136843F00103136022
:100D5C0000202064202384F83D30206384F83E007A
:100D6C00F8BD80F83C3001F045F88EE7284B9842EE
:100D7C008CBF002301239BE74FF4967101FB03F317
:100D8C002449A1FB03139B090133A7E7A268BAB955
:100D9C00461E03EB4307B6FBF7F60136C6F30B060C
:100DAC00B6FA86F6760936BBC2B9013803EB4303B3
:100DBC00B0FBF3F30133C3F30B0242F40043A3E79C
:100DCC00461E03EB830707EB8707B6FBF7F60136E6
:100DDC00C6F30B06B6FA86F67609E4E7013803EBA0
:100DEC00830303EB8303B0FBF3F20132C2F30B0278
:100DFC0042F4404388E7012386E701207047012035
:100E0C00AEE700BFA08601007F841E0083DE1B437B
:100E1C00FF083D00D34D62102DE9F04184B004462B
:100E2C000E4690461F46FFF7A5FB94F83D30DBB20B
:100E3C00202B04D00226304604B0BDE8F0810546D4
:100E4C000090192301224F492046FFF712FD00287C
:100E5C0040F0918094F83C30012B00F08E800123FF
:100E6C0084F83C3023681A6812F0010F03D11A6819
:100E7C0042F001021A602268136823F400631360C5
:100E8C00212384F83D30102384F83E300023236462
:100E9C00C4F824806785638D23853B4BE3622B4626
:100EAC000A9A31462046FFF76FFD0646002866D1A8
:100EBC000023039323685A6903929B690393039B52
:100ECC0012E0236C042B01D00126B4E722681368CE
:100EDC0043F4007313600126ADE72A460A992046B5
:100EEC00FFF76AFE00282CD1238D002B35D02A4623
:100EFC000A992046FFF79CFD0028E2D1626A23681C
:100F0C0012781A61616A4B1C6362638D013B9BB260
:100F1C006385238D013B9BB223852268506910F0B9
:100F2C00040FDAD0002BD8D04B781361636A0133ED
:100F3C006362638D013B9BB26385238D013B2385EB
:100F4C00CBE7236C042B01D0012674E722681368CD
:100F5C0043F40073136001266DE72268136843F4B1
:100F6C0000731360202384F83D30002384F83E3056
:100F7C0084F83C305FE702265DE702265BE701263A
:100F8C0059E700BF020010000000FFFF2DE9F041FF
:100F9C0086B004460E4617469846FFF7EBFA94F8CF
:100FAC003D30DBB2202B04D00226304606B0BDE823
:100FBC00F08105460090192301229E492046FFF737
:100FCC0058FC002840F0348194F83C30012B00F0A0
:100FDC003781012384F83C3023681A6812F0010F22
:100FEC0003D11A6842F001021A602268136823F4D4
:100FFC0000631360222384F83D30402384F83E3094
:10100C00002323640C9B6362BDF834306385638DCD
:10101C002385894BE36201950E9B009343463A4628
:10102C0031462046FFF72EFD0646002840F00A8187
:10103C00238D5BB9029323685A6902929A690292D2
:10104C00029A1A6842F400721A6072E0012B0AD0FC
:10105C00022B1AD00023059323685A6905929B69C9
:10106C000593059B65E02268136823F48063136085
:10107C000023039323685A6903929A690392039A93
:10108C001A6842F400721A6053E02268136823F461
:10109C00806313602268136843F4006313600023B9
:1010AC00049323685A6904929B690493049B40E05F
:1010BC002A460E992046FFF7A9FD002840F0C4806F
:1010CC0023681A69636A1A70636A01336362238D39
:1010DC00013B2385638D013B9BB2638529E0009521
:1010EC000E9B002255492046FFF7C3FB002840F019
:1010FC00AD802268136843F40073136023681A6987
:10110C00636A1A70626A531C6362238D013B2385E8
:10111C00638D013B9BB2638523681B695370636AC3
:10112C0001336362238D013B2385638D013B9BB2AD
:10113C006385238D002B72D0032B49D8012BB7D09C
:10114C00022BCCD000950E9B00223C492046FFF789
:10115C0090FB00287CD12268136823F48063136011
:10116C0023681A69636A1A70636A01336362238D98
:10117C00013B2385638D013B9BB2638500950E9BE0
:10118C0000222E492046FFF774FB002862D122680A
:10119C00136843F40073136023681A69636A1A7046
:1011AC00626A531C6362238D013B2385638D013B73
:1011BC009BB2638523681B695370636A0133636256
:1011CC00238D013B2385638D013B9BB26385B0E787
:1011DC002A460E992046FFF719FD00283CD12368BA
:1011EC001A69636A1A70626A531C6362238D013B2D
:1011FC002385638D013B9BB263852368596911F08C
:10120C00040F96D01B695370636A01336362238D9C
:10121C00013B2385638D013B9BB2638589E72023CA
:10122C0084F83D30002384F83E3084F83C30BCE632
:10123C000226BAE6020010000000FFFF04000100C5
:10124C000226B2E60126B0E60126AEE60126ACE6A1
:10125C000126AAE60126A8E60126A6E690F83D306E
:10126C00DBB2202B1AD1242380F83D30026813689E
:10127C0023F0010313600268536A23F010035362D6
:10128C000268536A194351620268136843F0010300
:10129C001360202380F83D300020704702207047F7
:1012AC0090F83D30DBB2202B19D1242380F83D304F
:1012BC000268136823F0010313600268536A9BB23F
:1012CC0023F00F03194389B251620268136843F08B
:1012DC0001031360202380F83D300020704702206A
:1012EC007047000010B582B000230193194B1A6CA3
:1012FC0042F080521A641B6C03F080530193019BE3
:10130C00154B01221A60FFF735F90446134B5B6845
:10131C0013F4803F08D1FFF72DF9001BB0F57A7F4D
:10132C00F4D9032002B010BD0D4B01221A60FFF757
:10133C0021F90446094B5B6813F4003F07D1FFF712
:10134C0019F9001BB0F57A7FF4D90320EAE70020E5
:10135C00E8E700BF0038024040000E420070004039
:10136C0044000E42002800F0BB8170B582B00446E8
:10137C00036813F0010F3BD0A74B9B6803F00C03E1
:10138C00042B2CD0A44B9B6803F00C03082B21D00E
:10139C006368B3F5803F4FD0B3F5A02F52D09E4B6E
:1013AC001A6822F480321A601A6822F480221A60B9
:1013BC006368002B50D0FFF7DDF80546964B1B6891
:1013CC0013F4003F14D1FFF7D5F8401B6428F5D96E
:1013DC0003208AE1904B5B6813F4800FD8D08E4BBE
:1013EC001B6813F4003F03D06368002B00F07A8174
:1013FC00236813F0020F55D0874B9B6813F00C0F2A
:10140C003ED0854B9B6803F00C03082B33D0E3686C
:10141C00002B68D0814B01221A60FFF7ABF8054610
:10142C007D4B1B6813F0020F54D1FFF7A3F8401B40
:10143C000228F5D9032058E1774A136843F4803326
:10144C001360B5E7744B1A6842F480221A601A686C
:10145C0042F480321A60ABE7FFF78CF805466E4B0E
:10146C001B6813F4003FC3D0FFF784F8401B6428BB
:10147C00F5D9032039E1684B5B6813F4800FC6D1B2
:10148C00654B1B6813F0020F04D0E368012B01D0ED
:10149C0001202AE1604A136823F0F803216943EA2A
:1014AC00C1031360236813F0080F40D0636963B362
:1014BC005B4B01221A60FFF75DF80546564B5B6FDC
:1014CC0013F0020F33D1FFF755F8401B0228F5D962
:1014DC0003200AE1504A136823F0F803216943EA18
:1014EC00C1031360DEE74D4B00221A60FFF742F890
:1014FC000546494B1B6813F0020FD3D0FFF73AF89F
:10150C00401B0228F5D90320EFE0454B00221A605E
:10151C00FFF730F80546404B5B6F13F0020F06D017
:10152C00FFF728F8401B0228F5D90320DDE02368DB
:10153C0013F0040F79D0384B1B6C13F0805F33D150
:10154C0000230193344B1A6C42F080521A641B6CCA
:10155C0003F080530193019B0125324B1B6813F45C
:10156C00807F23D0A368012B34D0052B38D02A4B95
:10157C001A6F22F001021A671A6F22F004021A671E
:10158C00A368002B36D0FEF7F5FF0646224B1B6FE7
:10159C0013F0020F48D1FEF7EDFF801B41F28833A8
:1015AC009842F3D90320A0E00025D6E71D4A136822
:1015BC0043F480731360FEF7DDFF0646194B1B687E
:1015CC0013F4807FCED1FEF7D5FF801B0228F5D90E
:1015DC0003208AE0104A136F43F001031367CFE72F
:1015EC000D4B1A6F42F004021A671A6F42F0010297
:1015FC001A67C5E7FEF7BEFF0646074B1B6F13F0D5
:10160C00020F11D0FEF7B6FF801B41F288339842CF
:10161C00F3D9032069E000BF0038024000004742C4
:10162C00800E474200700040E5B9A369002B5BD0E7
:10163C00304A926802F00C02082A58D0022B17D0BC
:10164C002D4B00221A60FEF795FF0446294B1B68B0
:10165C0013F0007F42D0FEF78DFF001B0228F5D956
:10166C00032042E0234A136C23F080531364DCE71D
:10167C00214B00221A60FEF77DFF05461D4B1B68AF
:10168C0013F0007F06D0FEF775FF401B0228F5D93A
:10169C0003202AE0E369226A1343626A43EA821355
:1016AC00A26A5208013A43EA0243E26A43EA02633D
:1016BC00104A5360104B01221A60FEF75BFF044680
:1016CC000C4B1B6813F0007F06D1FEF753FF001B79
:1016DC000228F5D9032008E0002006E0002004E0F1
:1016EC0001207047012000E0002002B070BD0120F5
:1016FC00FBE700BF0038024060004742324B9B685A
:10170C0003F00C03042B5CD0082B01D02F4870473E
:10171C002DE9F04B2C4B5A6802F03F025B6813F436
:10172C00800F2BD0284B5B68C3F388131E46002711
:10173C005C010025E41A65EB0705A90141EA9461F7
:10174C00A001001B61EB0501CB0043EA5073C40000
:10175C00A01943EB07014B0243EAD0534402204645
:10176C0019460023FEF73CFD174B5B68C3F301439E
:10177C0001335B00B0FBF3F0BDE8F08B124B5B6800
:10178C00C3F388131E4600275C010025E41A65EBA1
:10179C000705A90141EA9461A001001B61EB050159
:1017AC00CB0043EA5073C400A01943EB07018B0232
:1017BC0043EA90538402204619460023FEF710FD9D
:1017CC00D2E70348704700BF003802400024F40001
:1017DC0000127A00002800F09D8070B504464F4B33
:1017EC001B6803F00F038B4209D2CBB24B4A137028
:1017FC00136803F00F038B4201D0012070BD2368E6
:10180C0013F0020F17D013F0040F04D0444A93685E
:10181C0043F4E0539360236813F0080F04D0404A5C
:10182C00936843F4604393603D4A936823F0F0035C
:10183C00A068034393600D46236813F0010F32D068
:10184C006368012B21D09A1E012A25D9344A1268CB
:10185C0012F0020F60D032498A6822F0030213435F
:10186C008B60FEF787FE06462D4B9B6803F00C033E
:10187C006268B3EB820F16D0FEF77CFE801B41F240
:10188C0088339842F0D90320B8E7254A126812F43D
:10189C00003FE0D10120B1E7214A126812F0007F2D
:1018AC00D9D10120AAE71D4B1B6803F00F03AB42F3
:1018BC0009D9EAB2194B1A701B6803F00F03AB423B
:1018CC0001D001209AE7236813F0040F06D0144AC4
:1018DC00936823F4E053E1680B439360236813F09F
:1018EC00080F07D00E4A936823F46043216943EA3A
:1018FC00C1039360FFF702FF094B9B68C3F303130B
:10190C00084AD35CD840084B18600020FEF7E8FD6D
:10191C00002073E70120704701206FE7003C024074
:10192C00003802409C1F000808000020014B18687A
:10193C00704700BF0800002008B5FFF7F7FF044B05
:10194C009B68C3F38223034AD35CD84008BD00BF15
:10195C0000380240AC1F000800B585B08DF80C00B3
:10196C008DF80D1064230093022303AAD0210348A1
:10197C00FFF752FA05B05DF804FB00BF38000020F9
:10198C0030B585B005466423029307230193244C9C
:10199C00009401230022D0212248FFF7F7FA237884
:1019AC0003F00F02C3F3021303EB83035900531824
:1019BC00AB71637803F00F02C3F3021303EB8303E1
:1019CC00590053186B71A37803F00F02C3F3011382
:1019DC0003EB8303590053182B71E37803F00F03C7
:1019EC00EB70237903F00F02C3F3011303EB8303B2
:1019FC0059005318AB70637903F00F02C3F3001353
:101A0C0099000B44590053186B70A37903F00F0223
:101A1C001B0903EB8303590053182B7005B030BD21
:101A2C00300000203800002008B500210720FFF707
:101A3C0093FF08BD00B585B000238DF80C30A3F1E1
:101A4C003333A3FB0023DB081A01D2B203EB83036D
:101A5C005900401A52FA80F000F07F008DF80D000A
:101A6C0064230093022303AAD0210348FFF7D4F97F
:101A7C0005B05DF804FB00BF3800002000B585B050
:101A8C0001238DF80C3003F1CC33A3FB0023DB08CE
:101A9C001A01D2B203EB83035900401A52FA80F0B8
:101AAC0000F07F008DF80D0064230093022303AA3D
:101ABC00D0210348FFF7B0F905B05DF804FB00BF77
:101ACC003800002010B584B002238DF80C300C4A7D
:101ADC00A2FB0012D2081101C9B202EB820254001F
:101AEC00001B51FA80F000F03F008DF80D006422CD
:101AFC00009203AAD0210348FFF78EF904B010BD61
:101B0C00CDCCCCCC3800002000B585B004238DF8AA
:101B1C000C300D4BA3FB0023DB081A01D2B203EBF4
:101B2C0083035900401A52FA80F000F03F008DF800
:101B3C000D0064230093022303AAD0210348FFF76E
:101B4C006BF905B05DF804FBCDCCCCCC3800002093
:101B5C0000B585B005238DF80C300D4BA3FB00238D
:101B6C00DB081A01D2B203EB83035900401A52FA74
:101B7C0080F000F01F008DF80D0064230093022309
:101B8C0003AAD0210348FFF747F905B05DF804FB21
:101B9C00CDCCCCCC3800002000B585B006238DF818
:101BAC000C300C4BA3FB0023DB081A01D2B203EB65
:101BBC0083035900401A10448DF80D0064230093E0
:101BCC00022303AAD0210448FFF726F905B05DF8DB
:101BDC0004FB00BFCDCCCCCC3800002010B50446A3
:101BEC008079FFF727FF6079FFF748FF2079FFF72F
:101BFC0069FFA078FFF788FF6078FFF7A9FF2078CE
:101C0C00FFF7CAFF10BD000082B0002100910B4B02
:101C1C001A6B42F080021A631A6B02F08002009277
:101C2C00009A01911A6B42F002021A631B6B03F0CB
:101C3C0002030193019B02B0704700BF00380240C1
:101C4C0038B50D4C0D4B23600D4B63600025A56022
:101C5C00E5604FF4804323616561A561E561256210
:101C6C002046FFF709F829462046FFF7F7FA2946E0
:101C7C002046FFF715FB38BD38000020005400400B
:101C8C00A086010030B595B03022002108A800F0E4
:101C9C006BF900240394049405940694079401941E
:101CAC001C4B1A6C42F080521A641B6C03F080536C
:101CBC000193019B0294184B1A6842F440421A603B
:101CCC001B6803F440430293029B022508950123F1
:101CDC000B9310230C930E950F9408231093B4239D
:101CEC00119312950723139308A8FFF73BFBFFF7FB
:101CFC00F9FA0F230393049505944FF4A05306931C
:101D0C004FF480530793052103A8FFF763FD15B02B
:101D1C0030BD00BF003802400070004000B583B0F9
:101D2C00FEF702FCFFF7AEFFFFF76EFFFFF788FF31
:101D3C00FFF77AFE01238DF8063002238DF805306B
:101D4C0003228DF8042015228DF8022007228DF82D
:101D5C00012002A800F8083DFFF740FF6846FFF796
:101D6C000FFE9DF806200D4B1A709DF805200C4BAC
:101D7C001A709DF804200B4B1A709DF802200A4B28
:101D8C001A709DF80120094B1A709DF80020084B21
:101D9C001A706420FEF7F4FBE0E700BF8D00002012
:101DAC008E0000208F000020920000208C0000206C
:101DBC009000002000B583B0002100910C4B5A6CB0
:101DCC0042F480425A645A6C02F480420092009AA7
:101DDC0001911A6C42F080521A641B6C03F0805310
:101DEC000193019B0720FEF7DFFB03B05DF804FBBA
:101DFC000038024030B589B0002303930493059357
:101E0C00069307930268154B9A4201D009B030BD76
:101E1C0000250195124C236B43F002032363236BC3
:101E2C0003F002030193019BC02303931223049339
:101E3C0001230593032306930423079303A909485D
:101E4C00FEF70EFC0295236C43F400132364236C01
:101E5C0003F400130293029BD8E700BF0054004028
:101E6C0000380240000402407047FEE7FEE7FEE740
:101E7C00FEE770477047704708B5FEF76FFB08BD6B
:101E8C000F49D1F8883043F47003C1F888300D4BFA
:101E9C001A6842F001021A60002098601A6822F059
:101EAC00847222F480321A60074A5A601A6822F44B
:101EBC0080221A60D8604FF000638B60704700BFBF
:101ECC0000ED00E00038024010300024DFF834D080
:101EDC00002103E00C4B5B58435004310B480C4B76
:101EEC0042189A42F6D30B4A02E0002342F8043B14
:101EFC00094B9A42F9D3FFF7C3FF00F011F8FFF733
:101F0C000DFF704700000320C41F000800000020D4
:101F1C000C0000200C00002094000020FEE70000C4
:101F2C0070B50D4E0D4CA41BA4100025A54209D173
:101F3C000B4E0C4C00F020F8A41BA4100025A5425D
:101F4C0005D170BD56F8253098470135EEE756F8A7
:101F5C00253098470135F2E7BC1F0008BC1F00086C
:101F6C00BC1F0008C01F000802440346934200D166
:101F7C00704703F8011BF9E7F8B500BFF8BC08BCC3
:101F8C009E467047F8B500BFF8BC08BC9E4670472B
:101F9C00000000000000000001020304060708090D
:081FAC00000000000102030423
:081FB40068E2FF7F010000005C
:041FBC00D101000847
:041FC000AD01000867
:0C1FC40001000000100000000024F400E8
:0400000508001ED9F8
:00000001FF
